{
  "contractName": "Funder",
  "abi": [
    {
      "inputs": [
        {
          "internalType": "string",
          "name": "taskText",
          "type": "string"
        }
      ],
      "name": "addTask",
      "outputs": [],
      "stateMutability": "nonpayable",
      "type": "function"
    },
    {
      "inputs": [],
      "name": "filterMyTasks",
      "outputs": [
        {
          "components": [
            {
              "internalType": "uint256",
              "name": "id",
              "type": "uint256"
            },
            {
              "internalType": "string",
              "name": "taskText",
              "type": "string"
            },
            {
              "internalType": "address",
              "name": "userId",
              "type": "address"
            }
          ],
          "internalType": "struct Funder.Task[]",
          "name": "",
          "type": "tuple[]"
        }
      ],
      "stateMutability": "view",
      "type": "function"
    },
    {
      "inputs": [],
      "name": "getTasks",
      "outputs": [
        {
          "components": [
            {
              "internalType": "uint256",
              "name": "id",
              "type": "uint256"
            },
            {
              "internalType": "string",
              "name": "taskText",
              "type": "string"
            },
            {
              "internalType": "address",
              "name": "userId",
              "type": "address"
            }
          ],
          "internalType": "struct Funder.Task[]",
          "name": "",
          "type": "tuple[]"
        }
      ],
      "stateMutability": "view",
      "type": "function"
    }
  ],
  "bytecode": "0x608060405234801561001057600080fd5b50610d68806100206000396000f3fe608060405234801561001057600080fd5b50600436106100415760003560e01c806304a87e381461004657806316ffede0146100645780636723856214610082575b600080fd5b61004e61009e565b60405161005b91906107fa565b60405180910390f35b61006c6101ef565b60405161007991906107fa565b60405180910390f35b61009c60048036038101906100979190610965565b6104ef565b005b60606000805480602002602001604051908101604052809291908181526020016000905b828210156101e65783829060005260206000209060030201604051806060016040529081600082015481526020016001820180546100ff906109dd565b80601f016020809104026020016040519081016040528092919081815260200182805461012b906109dd565b80156101785780601f1061014d57610100808354040283529160200191610178565b820191906000526020600020905b81548152906001019060200180831161015b57829003601f168201915b505050505081526020016002820160009054906101000a900473ffffffffffffffffffffffffffffffffffffffff1673ffffffffffffffffffffffffffffffffffffffff1673ffffffffffffffffffffffffffffffffffffffff1681525050815260200190600101906100c2565b50505050905090565b60606000808054905067ffffffffffffffff8111156102115761021061083a565b5b60405190808252806020026020018201604052801561024a57816020015b6102376105c7565b81526020019060019003908161022f5790505b5090506000805b600080549050811015610435573373ffffffffffffffffffffffffffffffffffffffff166000828154811061028957610288610a0e565b5b906000526020600020906003020160020160009054906101000a900473ffffffffffffffffffffffffffffffffffffffff1673ffffffffffffffffffffffffffffffffffffffff160361042257600081815481106102ea576102e9610a0e565b5b90600052602060002090600302016040518060600160405290816000820154815260200160018201805461031d906109dd565b80601f0160208091040260200160405190810160405280929190818152602001828054610349906109dd565b80156103965780601f1061036b57610100808354040283529160200191610396565b820191906000526020600020905b81548152906001019060200180831161037957829003601f168201915b505050505081526020016002820160009054906101000a900473ffffffffffffffffffffffffffffffffffffffff1673ffffffffffffffffffffffffffffffffffffffff1673ffffffffffffffffffffffffffffffffffffffff168152505083838151811061040857610407610a0e565b5b6020026020010181905250818061041e90610a6c565b9250505b808061042d90610a6c565b915050610251565b5060008167ffffffffffffffff8111156104525761045161083a565b5b60405190808252806020026020018201604052801561048b57816020015b6104786105c7565b8152602001906001900390816104705790505b50905060005b828110156104e5578381815181106104ac576104ab610a0e565b5b60200260200101518282815181106104c7576104c6610a0e565b5b602002602001018190525080806104dd90610a6c565b915050610491565b5080935050505090565b6000808054905090506000339050600060405180606001604052808481526020018581526020018373ffffffffffffffffffffffffffffffffffffffff1681525090806001815401808255809150506001900390600052602060002090600302016000909190919091506000820151816000015560208201518160010190816105789190610c60565b5060408201518160020160006101000a81548173ffffffffffffffffffffffffffffffffffffffff021916908373ffffffffffffffffffffffffffffffffffffffff1602179055505050505050565b60405180606001604052806000815260200160608152602001600073ffffffffffffffffffffffffffffffffffffffff1681525090565b600081519050919050565b600082825260208201905092915050565b6000819050602082019050919050565b6000819050919050565b61063d8161062a565b82525050565b600081519050919050565b600082825260208201905092915050565b60005b8381101561067d578082015181840152602081019050610662565b60008484015250505050565b6000601f19601f8301169050919050565b60006106a582610643565b6106af818561064e565b93506106bf81856020860161065f565b6106c881610689565b840191505092915050565b600073ffffffffffffffffffffffffffffffffffffffff82169050919050565b60006106fe826106d3565b9050919050565b61070e816106f3565b82525050565b600060608301600083015161072c6000860182610634565b5060208301518482036020860152610744828261069a565b91505060408301516107596040860182610705565b508091505092915050565b60006107708383610714565b905092915050565b6000602082019050919050565b6000610790826105fe565b61079a8185610609565b9350836020820285016107ac8561061a565b8060005b858110156107e857848403895281516107c98582610764565b94506107d483610778565b925060208a019950506001810190506107b0565b50829750879550505050505092915050565b600060208201905081810360008301526108148184610785565b905092915050565b6000604051905090565b600080fd5b600080fd5b600080fd5b600080fd5b7f4e487b7100000000000000000000000000000000000000000000000000000000600052604160045260246000fd5b61087282610689565b810181811067ffffffffffffffff821117156108915761089061083a565b5b80604052505050565b60006108a461081c565b90506108b08282610869565b919050565b600067ffffffffffffffff8211156108d0576108cf61083a565b5b6108d982610689565b9050602081019050919050565b82818337600083830152505050565b6000610908610903846108b5565b61089a565b90508281526020810184848401111561092457610923610835565b5b61092f8482856108e6565b509392505050565b600082601f83011261094c5761094b610830565b5b813561095c8482602086016108f5565b91505092915050565b60006020828403121561097b5761097a610826565b5b600082013567ffffffffffffffff8111156109995761099861082b565b5b6109a584828501610937565b91505092915050565b7f4e487b7100000000000000000000000000000000000000000000000000000000600052602260045260246000fd5b600060028204905060018216806109f557607f821691505b602082108103610a0857610a076109ae565b5b50919050565b7f4e487b7100000000000000000000000000000000000000000000000000000000600052603260045260246000fd5b7f4e487b7100000000000000000000000000000000000000000000000000000000600052601160045260246000fd5b6000610a778261062a565b91507fffffffffffffffffffffffffffffffffffffffffffffffffffffffffffffffff8203610aa957610aa8610a3d565b5b600182019050919050565b60008190508160005260206000209050919050565b60006020601f8301049050919050565b600082821b905092915050565b600060088302610b167fffffffffffffffffffffffffffffffffffffffffffffffffffffffffffffffff82610ad9565b610b208683610ad9565b95508019841693508086168417925050509392505050565b6000819050919050565b6000610b5d610b58610b538461062a565b610b38565b61062a565b9050919050565b6000819050919050565b610b7783610b42565b610b8b610b8382610b64565b848454610ae6565b825550505050565b600090565b610ba0610b93565b610bab818484610b6e565b505050565b5b81811015610bcf57610bc4600082610b98565b600181019050610bb1565b5050565b601f821115610c1457610be581610ab4565b610bee84610ac9565b81016020851015610bfd578190505b610c11610c0985610ac9565b830182610bb0565b50505b505050565b600082821c905092915050565b6000610c3760001984600802610c19565b1980831691505092915050565b6000610c508383610c26565b9150826002028217905092915050565b610c6982610643565b67ffffffffffffffff811115610c8257610c8161083a565b5b610c8c82546109dd565b610c97828285610bd3565b600060209050601f831160018114610cca5760008415610cb8578287015190505b610cc28582610c44565b865550610d2a565b601f198416610cd886610ab4565b60005b82811015610d0057848901518255600182019150602085019450602081019050610cdb565b86831015610d1d5784890151610d19601f891682610c26565b8355505b6001600288020188555050505b50505050505056fea264697066735822122087d6c18f4a23a4078df46dcd9cbe5082fb4b9fd79562235bcd9a475496ee618a64736f6c63430008110033",
  "immutableReferences": {},
  "source": "// SPDX-License-Identifier: MIT\npragma solidity >=0.4.22 <0.9.0;\n\ncontract Funder {\n    \n  struct Task {\n    uint id ;\n    string taskText;\n    address userId ;\n  }\n \n  Task[] private tasks;\n  \n  function addTask(string memory taskText) external {\n    uint taskId = tasks.length;\n    address userId = msg.sender;\n    tasks.push(Task(taskId , taskText , userId));\n  } \n\n\n\n  function filterMyTasks () public  view returns(Task[] memory) {\n      Task[] memory tempp = new Task[](tasks.length);\n        uint countt = 0 ;\n      for(uint i=0 ; i < tasks.length ; i++){\n        if(tasks[i].userId == msg.sender){\n          tempp[countt] = tasks[i];\n          countt++;\n        }\n      }\n\n      Task[] memory result = new Task[](countt);\n      for(uint i=0; i < countt; i++){\n        result[i] = tempp[i];\n      }\n    \n    return result;\n\n  }\n\n  function getTasks() external view returns(Task[] memory) {\n    return tasks;\n  }\n\n}\n",
  "sourcePath": "C:\\Users\\ASIM KHAN\\Desktop\\mern\\reactt\\New folder (3)\\contracts\\Funder.sol",
  "compiler": {
    "name": "solc",
    "version": "0.8.17+commit.8df45f5f.Emscripten.clang"
  },
  "schemaVersion": "3.4.10",
  "updatedAt": "2022-10-26T19:18:06.610Z",
  "devdoc": {
    "kind": "dev",
    "methods": {},
    "version": 1
  },
  "userdoc": {
    "kind": "user",
    "methods": {},
    "version": 1
  }
}