{
  "contractName": "Payable",
  "abi": [
    {
      "inputs": [],
      "name": "TransferEthers",
      "outputs": [],
      "stateMutability": "payable",
      "type": "function",
      "payable": true
    },
    {
      "inputs": [],
      "name": "depositEthers",
      "outputs": [],
      "stateMutability": "payable",
      "type": "function",
      "payable": true
    },
    {
      "inputs": [],
      "name": "getBalance",
      "outputs": [
        {
          "internalType": "uint256",
          "name": "",
          "type": "uint256"
        }
      ],
      "stateMutability": "view",
      "type": "function",
      "constant": true
    },
    {
      "inputs": [
        {
          "internalType": "address payable",
          "name": "_to",
          "type": "address"
        }
      ],
      "name": "sendEthers",
      "outputs": [],
      "stateMutability": "payable",
      "type": "function",
      "payable": true
    }
  ],
  "bytecode": "0x608060405234801561001057600080fd5b506101fc806100206000396000f3fe60806040526004361061003f5760003560e01c806312065fe0146100445780638549085e1461006f578063c8a178301461008b578063f477a6b714610095575b600080fd5b34801561005057600080fd5b5061005961009f565b604051610066919061011b565b60405180910390f35b61008960048036038101906100849190610199565b6100a7565b005b6100936100fe565b005b61009d610100565b005b600047905090565b600034116100b457600080fd5b8073ffffffffffffffffffffffffffffffffffffffff166108fc349081150290604051600060405180830381858888f193505050501580156100fa573d6000803e3d6000fd5b5050565b565b565b6000819050919050565b61011581610102565b82525050565b6000602082019050610130600083018461010c565b92915050565b600080fd5b600073ffffffffffffffffffffffffffffffffffffffff82169050919050565b60006101668261013b565b9050919050565b6101768161015b565b811461018157600080fd5b50565b6000813590506101938161016d565b92915050565b6000602082840312156101af576101ae610136565b5b60006101bd84828501610184565b9150509291505056fea26469706673582212206f3262940822a2184e13196ced79995587ecabeb21b52b929dc81fcba8789f4664736f6c63430008110033",
  "immutableReferences": {},
  "source": "// SPDX-License-Identifier: MIT\r\npragma solidity ^0.8.13;\r\n\r\ncontract Payable {\r\n   \r\n   \r\n \r\n   function TransferEthers() public payable {}\r\n\r\n    function depositEthers() public payable {\r\n    }\r\n\r\n    function getBalance() public view  returns (uint) {\r\n        return address(this).balance;\r\n    }\r\n\r\n    function sendEthers(address payable _to) public payable {\r\n        require(msg.value > 0);\r\n        _to.transfer(msg.value);\r\n    }\r\n}\r\n",
  "sourcePath": "C:\\Users\\ASIM KHAN\\Desktop\\mern\\reactt\\New folder (3)\\contracts\\Payable.sol",
  "compiler": {
    "name": "solc",
    "version": "0.8.17+commit.8df45f5f.Emscripten.clang"
  },
  "schemaVersion": "3.4.10",
  "updatedAt": "2022-10-26T19:21:42.156Z",
  "networkType": "ethereum",
  "devdoc": {
    "kind": "dev",
    "methods": {},
    "version": 1
  },
  "userdoc": {
    "kind": "user",
    "methods": {},
    "version": 1
  }
}